:020000040800F2
:100000000000012085BD050821BE05083949020808
:100010009147020821BE050821BE05080000000026
:1000200000000000000000000000000021BE0508E4
:1000300021BE05080000000021BE05085535020854
:1000400021BE050821BE050821BE050821BE050800
:1000500021BE050821BE050871300208793002086A
:1000600081300208893002089130020891AD000801
:10007000A1AD0008B1AD0008C1AD0008D1AD0008C8
:10008000E5AD0008F9AD000821BE050821BE050850
:1000900021BE050821BE050821BE050899300208C9
:1000A00045CB000831CA000855CB000821CA00081A
:1000B00059CA000869CA000879CA000871A900086D
:1000C00065A90008A5A9000899A9000821BE05088E
:1000D00021BE0508A1340208AD340208B934020873
:1000E000A130020821BE050821BE050865CB000825
:1000F0001DCB000821BE05080DCB00080DAE000881
:1001000021BE0508F1E6000889CA000821BE0508DD
:10011000C5340208D134020899CA0008E537050839
:1001200021AE000835AE000849AE00085DAE0008FB
:1001300071AE000800000000000000000000000098
:10014000000000000000000000000000692D05080C
:1001500085AE000899AE0008ADAE0008DD34020897
:10016000D9A90008CDA9000821BE050821BE0508AF
:1001700021BE050821BE05080000000000000000A7
:1001800021BE050821BE050821BE050821BE0508BF
:1001900021BE050821BE05080000000021BE05089B
:1001A00000000000000000000000000021BE050863
:1001B00021BE050821BE0508000000000000000067
:1001C000000000000000000000000000000000002F
:1001D00000000000000000000000000021BE050833
:0801E000D0B805000100000089
:1001E8000A90010024000000101E01206C2A012042
:1001F8000000000081900308682A01201402010011
:10020800050000005C270120942A0120000000005E
:100218005C190708902A01201F020800100000003E
:10022800B4260120A02A012000000000117B01084B
:100238009C2A012006100100260000004C1E012007
:10024800B42A012000000000397A0108B02A0120F0
:100258001F50010024000000C0420120A0410120DD
:1002680000000000641907089C4101200B300100C0
:100278001A000000E4420120C841012000000000EB
:1002880088190708C44101202B0201000C00000056
:100298004C2D0120E841012000000000A2190708A8
:1002A800E441012018400100380000001437012003
:1002B800F841012000000000318A0108F4410120C2
:1002C8001E0201000600000074360120344201209D
:1002D80000000000AE190708304201200D1201008D
:1002E80014000000EC400120404201200000000002
:1002F800B41907083C420120031101000A0000005C
:1003080074370120584201200000000025820408AB
:100318005442012012300100100000007C350120F9
:100328006842012000000000C81907086442012043
:100338000B2201003D000000842D01207C42012099
:1003480000000000D81907087842012015001000A5
:1003580070000000105C0120945D01200000000086
:1003680000000000905D01202A00080060000000E5
:10037800B05B0120085E0120000000009996030888
:10038800045E01202C00040010000000A05B012086
:100398006C5E012000000000C18C0308685E01202B
:1003A80025201E002C010000745A0120805E0120C7
:1003B80000000000000000007C5E01202B001200FD
:1003C800240000004C5A0120B05F0120000000000A
:1003D800DD8C0308AC5F0120012001000C00000047
:1003E800BC530120D85F012000000000181A07083C
:1003F800D45F01201620010006000000D45301201C
:10040800E85F012000000000241A0708E45F0120CB
:100418002700010004000000C8530120F45F0120F8
:10042800000000002A1A0708F05F01200C500400A1
:10043800800000007C4D0120FC5F012000000000CE
:1004480065CF0208F85F0120292014007800000019
:1004580024510120806001200000000000000000FD
:100468007C600120232001001000000014510120AD
:10047800FC600120000000006D900308F860012076
:100488002830010016000000E05001201061012012
:1004980000000000C19603080C6101200E50040002
:1004A80058020000FC4D01202C61012000000000D2
:1004B800AD2E0308286101200D1001007000000016
:1004C8006C5001208863012000000000E75B0208EF
:1004D80084630120220201001C0100004C5201200B
:1004E800FC63012000000000199E0108F863012048
:1004F800160215003F0000005C6501201C65012004
:1005080000000000597B0108186501201B0201004A
:1005180010000000B0650120A06501200000000067
:10052800C97A01089C650120280204000400000023
:10053800C8650120C465012000000000BD7A0108DB
:10054800C06501202702040004000000D4650120D2
:10055800D065012000000000B17A0108CC650120B7
:100568001C0202001C000000F8500120DC6501207C
:1005780000000000317F0108D86501201A0201003F
:100588003C00000038660120FC65012000000000E6
:10059800C5890108F86501200400080080000000F2
:1005A8004855012078660120000000000000000086
:1005B800746601201902010010000000B4510120E6
:1005C800FC66012000000000F17A0108F8660120AD
:1005D8000812040014000000E055012010670120F3
:1005E80000000000AD7901080C670120031201002A
:1005F8003D0000008C560120286701200000000003
:100608002E1A070824670120010201000A000000D1
:10061800945901206C67012000000000117A01083C
:10062800686701200C02010004000000F855012051
:100638007C67012000000000297A01087867012002
:10064800FD1701009A000000A459012084670120C9
:1006580000000000171B0408806701201310010028
:1006680004000000DC500120246801200000000084
:100678006C1A07082068012002020100030000002C
:10068800905901202C6801200000000000000000A3
:1006980028680120F5C1010074000000D85101202C
:1006A800346801200000000041420408306801203D
:1006B800F62101000C000000CC510120AC6801209B
:1006C80000000000701A0708A86801201212010033
:1006D8000400000030820120BC68012000000000F6
:1006E8007C1A0708B8680120110201000800000000
:1006F80034820120C468012000000000801A070825
:10070800C068012034000100100000003C82012074
:10071800D0680120000000002D8B0308CC68012060
:10072800F83101000600000054500120E46801205F
:1007380000000000881A0708E06801200200010094
:100748000C00000048560120F0680120000000005D
:1007580000000000EC680120FE0101001400000008
:10076800A0510120006901200000000095790108CE
:10077800FC68012006120400180000003056012011
:100788001869012000000000B17E010814690120E9
:10079800F701010006000000C4510120346901205E
:1007A800000000008E1A070830690120FC010100D2
:1007B800090000004C82012040690120000000006F
:1007C800DD7A01083C690120FB01010001000000FD
:1007D800588201205069012000000000E97A0108D0
:1007E8004C6901201A0001000E000000C8550120C4
:1007F8005869012000000000941A07085469012074
:100808001400010005000000645001206C690120FB
:1008180000000000A21A070868690120FD01010014
:1008280024000000B2540120786901200000000073
:100838009FF40108746901201D02020006000000EF
:10084800AC540120A0690120000000000000000055
:100858009C690120F9010100040000005C8201206C
:10086800AC6901200000000059F40108A8690120C2
:10087800FA01010003000000F4550120B4690120C9
:1008880000000000217A0108B0690120FF21010061
:100898000500000094460120BC690120000000000A
:1008A800017B0108B869012005300100080000003B
:1008B8008C460120C869012000000000A81A07081A
:1008C800C4690120130201000400000098470120B8
:1008D800D469012000000000B01A0708D06901207F
:1008E8000E02010002000000DCA9012014AA012068
:1008F80000000000B41A070810AA01202F200100E8
:10090800220000001CAA012094A901200000000078
:10091800B61A070818AA01202902010040000000A1
:10092800E8B501202CB6012000000000D81A0708FD
:1009380028B601202630010008000000E0B501209B
:1009480070B6012000000000E97E04086CB60120A2
:100958002052010008000000D8B501207CB6012013
:1009680000000000181B070878B601202A120100B1
:1009780008000000D0B5012088B601200000000062
:10098800201B070884B6012019000100050000009B
:10099800C8B5012094B6012000000000281B0708F4
:1009A80090B60120384001000600000078AC012014
:1009B800A0B60120000000002E1B07089CB60120ED
:1009C80010100100020000003CB30120ACB6012069
:1009D80000000000341B0708A8B60120050201002A
:1009E8000400000040B801208CBD01200000000078
:1009F800361B070888BD01202C02010004000000F6
:100A080078B80120B4BD0120000000003A1B070897
:100A1800B0BD01202D0201000100000044B80120F2
:100A2800BCBD01200000000000000000B8BD01208E
:100A380001010100040000000CB80120C4BD012020
:100A48000000000000000000C0BD012000010100FE
:100A580004000000B8B60120CCBD01200000000051
:100A68003E1B0708C8BD0120020101000300000069
:100A780008B80120D4BD01200000000015CB0208F1
:100A8800D0BD01202332010014000000A4C00120C1
:100A98001CC2012000000000441B070818C20120E6
:100AA80003000100010000009CBE012034C20120A7
:100AB800000000000000000030C201200012010008
:100AC8000A000000D8CF01205CD5012000000000FA
:100AD8000000000058D501201002010001000000AC
:100AE800D8120220D412022000000000581B070868
:040AF800D0120220F6
:08280000082800080040000850
:10800000084A0346D0F8E4005268D3F8F010121A78
:1080100000209142B8BFC3F8F020012283F81C2150
:10802000704700BF001000E090F8DB30052B03D84C
:1080300090F81E31032B01D00020704790F82331B7
:1080400003F0FB03022B0CBF00200720704700BF8A
:1080500030B5FAB18E464FEA014C034600F1C00537
:10806000002419680C3353F8042C43F8084C41EAF7
:108070000C0142EA0E02AB4243F80C1C43F8042CFC
:10808000EFD1D0F8C03043EA0E03C0E93144C0F864
:10809000C03030BD4FEA014E8C46DEE7836930B414
:1080A0005C6999682268096822F0010222601C8AD2
:1080B000CA6822EA0402CA60027D00681F2A06D943
:1080C000203A082144689140214216D0FEE7082159
:1080D000046891402142F9D1202101FA02F2826024
:1080E000204A12783AB11A7F012A0BD1D3F8042121
:1080F0000132C3F8042130BC7047202101FA02F29A
:10810000C260EDE7D3F800210132C3F80021EFF39C
:108110001181502282F312885868C9B29D6C02689E
:10812000DC6C22EA05022243026081F311885A695D
:108130009968D3E90D40096814605061D3E90F4094
:10814000546090605C6CB3F8B400D4600124C862E1
:108150001068204310601A8A1C77CB68134330BC28
:10816000CB6070472402002070B50E4E7368002B60
:1081700016DD06F10804002503E073682034AB42E5
:108180000EDD237F0135002BF7D0E06800220028A8
:10819000F3D0217D20341AF0DFFF7368AB42F0DCAE
:1081A000012070BD24020020704700BF024B03EB8A
:1081B000401090F825007047240200204368426D6B
:1081C00030B49A61EFF31182502383F3128841682F
:1081D000D2B2856C0B68046D23EA050323430B6060
:1081E00082F31188436981681A68096822F00102E4
:1081F000D0E908541A60826A1D605C615A60D0E957
:108200000B429C60DA600023B0F86C2030BCCA627C
:10821000037770472DE9F0410022794B846982B0E1
:108220001E680192082204F19C07D4E93D839A401C
:10823000D8F80050154205D0D4F89C1008684007C3
:1082400000F1B08001229A40154205D0D4F89C106C
:108250004969080600F19D8004229A40154205D024
:10826000D4F89C100968890700F18A8010229A408E
:10827000154204D0D4F89C10086800076AD4202264
:108280009A40154218D0D4F89C100868C00613D53F
:10829000C8F8082094F8D120052A39D00B6813F4C7
:1082A000802F0B6800F09280190340F19D80D4F874
:1082B000D8300BB138469847D4F8F030002B46D070
:1082C000D4F8F030DA071BD54E4BD4F89C20A3FB32
:1082D0000636052384F8D130B60A136823F001036B
:1082E000136002E01368DB0704D5019B01339E4253
:1082F0000193F7D20022012384F8D02084F8D130F2
:10830000D4F8E8301BB3384602B0BDE8F041184756
:108310000A6822F016020A604A6922F080024A6165
:10832000D4F8DC20002A65D00A6822F008020A602E
:108330003F22002102FA03F30122C8F80830D4F8E2
:10834000EC3084F8D01084F8D120002BDBD102B0BF
:10835000BDE8F081C8F808200A6812F4802F0A6886
:108360002DD1D20503D40A6822F008020A60D4F89D
:10837000DC20002A83D038469047D4F8F8307EE7D6
:10838000C8F80820D4F8F02042F00402C4F8F02025
:108390006CE7C8F80820D4F8F02042F00202C4F8D4
:1083A000F02059E7086820F004000860C8F80820A9
:1083B000D4F8F02042F00102C4F8F02042E71103A3
:1083C000D5D5D4F8E420002AD5D158E713F480732A
:1083D0007FF46DAF0A6822F010020A60012284F86F
:1083E000D03084F8D12062E7D4F8E030002B7FF45D
:1083F00061AF61E7D4F8E420002A95D198E700BF87
:10840000F01A0120B5814E1B4FF400638381704741
:10841000084A0346D0F8E4005268D3F8F010121A64
:1084200000208A42C8BFC3F8F020012283F81C2133
:10843000704700BF001000E04FF400638381704775
:108440004FF40063838170474FF40063838170476A
:10845000012380F8103170474FF400638381704727
:108460004FF40063838170474FF40063838170474A
:108470007047012070470120704730B1094BD3EDA0
:108480000A7AFDEEE77AC0ED007A51B1054B9FED17
:10849000067AD3ED0B7A67EE877AFDEEE77AC1EDC7
:1084A000007A7047F01A01200000C842024B0122F6
:1084B00083F83020704700BFF01A0120314AF0B530
:1084C000D38F558EB2F94840ED1A938FB2F93660CA
:1084D0006B43B2F94650B2F942C004EBE334B2F94F
:1084E0005470ED0295FBF4F505EBE335A5F57A6ED6
:1084F00015650EFB0EF40EFB06F62313B2F9384099
:10850000F6120EFB04FEB2F9404003FB0CFC5C4388
:10851000538F06EBEC2CB2F9346024140CEB860C70
:10852000966D04EB6E344CF250320CFA07FC0234B8
:108530000CF1020CA410A6EBAC0604F50044634356
:10854000DC0B42FA07F373434BBFB3FBF4F35B005E
:108550005B00B3FBF4F370B11A1240F6DE34524301
:108560006243094C12145C4302EB244202F6CF62D0
:1085700003EB2213036021B10A235D4308352D115B
:108580000D60F0BDF01A012043E3FFFF70470120AA
:108590007047012070472DE9F047DFF880810E46D3
:1085A0000746D8F85C50B8F86020B8F86690C2EB7F
:1085B00025135200C2EBE502B8F962506A4303FB8F
:1085C00003F5B8F964302D135D43B8F96A30AD1383
:1085D0004FEAE37E05EBE225A5F5FA31C8F87850BD
:1085E00081FB010C03FB0CF200FB0E22A3FB003EFF
:1085F0009644B8F968201B0A82FB014243EA0E63E5
:10860000120342EA145224031B194FF0000442EBF8
:108610002E22A3FB093E02F5004209FB02EE4FEABF
:10862000EE734FEA6E0253EA6E0E6BD0B8F970909B
:108630004FEAE97E09FB0CFC00FB0ECCA9FB009085
:108640008444B8F96E0080FB01E148044FEA4E41D2
:1086500040EADE3011EB0909D8F87C104CEB000041
:10866000C1F5801C14EB0904B8F96C100CF0004A39
:1086700040F6354900EBC1014AEA5C0A4FEACC7C7E
:10868000BCEB04006AEB010AA0FB090109FB0A111B
:1086900053F092F9B8F976404FEA613E8146430BB8
:1086A00004FB0EF24FEAE47C43EAC14303FB0C2CCB
:1086B000A4FB0342624404FB0EFE03FB02EEB8F986
:1086C0007420A4FB03439E44640E02FB01F344EABE
:1086D000CE1414EB000C4FEAE274A2FB092941EB23
:1086E0006E6E04FB0031D40CB8F97230494444EA90
:1086F00041341CEB04044EEBE141240A44EA0164DA
:1087000004EB03140FB1240A3C6026B105EB850588
:1087100080352D123560BDE8F08700BFF01A0120CA
:10872000704700BF01207047012070470022034BB3
:10873000F42183F830202E224EF0E0BAF01A012006
:10874000064B0021B3F8542083F83010F421920135
:10875000343202F0FC024EF0D1BA00BFF01A012010
:108760003122F4214EF0CABA08B500684EF088FAFA
:1087700030B9044A0120B2F880305BBA538608BD94
:108780000020FCE7F01A012008B500684EF078FAE6
:1087900090B90A4A012092F8813092F880101B02A9
:1087A00043EA014392F882100B43B2F95410C1F12D
:1087B0000801CB40936508BD0020FCE7F01A0120BA
:1087C00008B500684EF05CFAD8B90F4A0F4992F824
:1087D000093192F808011B0143EA003392F80A01BB
:1087E00043EA101392F80B01CB6792F80C3192F820
:1087F0000D211B0143EA0033012043EA1213CB652C
:1088000008BD0020FCE700BF24020020F01A012070
:10881000036810B41A78012A1CD0194C1949012098
:1088200091F8122191F811C191F8153112041B042D
:1088300042EA0C2291F814C143EA0C2391F810C1CA
:1088400091F8131142EA0C020B43C4E981235DF84D
:10885000044B704793F90430094C03EB430304EBDA
:10886000431393F8D920202A03D000205DF8044B4D
:108870007047D3F898309B691B04F6D4CEE700BF4D
:10888000F01A0120240200202DE9F04FCC4C83B0D7
:10889000B4F80C32D4F80822B4F80E62A2EB03222A
:1088A00094F910520091A6FB02634FEAE57C9F0405
:1088B000A2FB022305FB03F347EA9637B60402FB4B
:1088C0000C33A5FB0252AD191A4442EB0703002BEF
:1088D00002DA013D43F10003DF17C4E98A370028BB
:1088E00000F01A8103FB07FCD4F80452A3FB032613
:1088F00006EB4C064FEA921E4FEAA6184EEA866E29
:108900000EFB07FC03FB08CCAEFB03E81CEB080CDA
:1089100000F150814FEA1E2E4FEA2C214EEA0C6ED8
:1089200094F916C201914FEAEC780CFB01FA0EFBA8
:1089300008AAACFB0EC81AEB080A00F136814FEA10
:108940005C1CB4F913824CEACA6194F915C2A8F50B
:1089500080484FEAEC7B0CFB06F902FB0B99ACFB61
:1089600002CBD944B4F911B24FEA8909ABF5804B77
:1089700049EA9C794FEA8B3B4FEA8C0C0BEB6A1A65
:1089800008FB07FB11EB0C0C4AEB09094FEAE87AEC
:1089900003FB0ABBA8FB038ADA444FEA4A5A4AEAB5
:1089A000D82A4FEA48581CEB080C49EB0A09B9F1E0
:1089B000000FC0F2F3804FEA1C6B019994F91CC2BE
:1089C0004BEA092B0CFB01FA4FEAEC784FEA2969D4
:1089D0000EFB08AAACFB0ECE1AEB0E0E00F1D980EE
:1089E0004FEA5C1C4CEACE6894F91BC24FEAEC7A61
:1089F0000CFB06F602FB0A66ACFB022CB444B4F88E
:108A000017624FEA0C1AF6034AEA127A120106EBD1
:108A10006E1E18EB0202B4F81982A8FB03C64EEBD7
:108A20000A0A08FB07684FEA885646EA9C264FEA7E
:108A30008C5C12EB0C024AEB060ABAF1000FC0F292
:108A4000A28094F91FE24FEA920CABFB05864CEA38
:108A50008A7C0EFB07F205FB09664FEAEE791CEBF8
:108A60000808B4F91DC203FB0922AEFB03E946EB7B
:108A7000AA064A444FEA0C491EEB090E42EBEC7C75
:108A8000AEFB05E205FB0C22002A75DB4FEA5E3ED9
:108A90004EEAC24E5213AEFB05CE05FB02EEBEF10E
:108AA000000F62DB4FEA5C2C94F920224CEACE5C8A
:108AB00018EB0C0CA5FB054846EB6E264FEAE27E50
:108AC00004FB0EFE02FB08EEA4FB02421EEB020EAC
:108AD00045D4220C42EA0E424FEA2E4EA2FB052458
:108AE00005FB0E4EBEF1000F35DBD20942EA4E62A5
:108AF00012EB0C0246EBEE16941846EB060EA41889
:108B000046EB0E0E4FEACE0E4EEA547EE400A41859
:108B100046EB0E06360C0660009A9AB1DA1847EB5F
:108B20000700D21847EB0000C00040EA5270D200A4
:108B3000D31847EB0007002F07DB9B0B009A43EA93
:108B40008743136003B0BDE8F08F43F6FF729B18B4
:108B500047F10007F1E77F324EF1000EC5E74FF60F
:108B6000FF72A4184EF1000EB3E740F2FF121CEBA7
:108B7000020C4EF1000E95E741F6FF7C1EEB0C0E49
:108B800042F1000282E712F1030C62464AF1000A48
:108B900057E71CF11F0C4EF1000E21E76FF07F4BE1
:108BA0001CEB0B0C49F1000905E71CF11F0C4AF105
:108BB000000AC4E61EF1FF0E4CF1000CAAE600BF4D
:108BC000F01A01203B4BDFED3C3A93F8311293F859
:108BD0003002090293F8322293F833C201EB0041CC
:108BE00093F8340293ED906A0A4409024FEA002098
:108BF00093F8351248BF02F17F42B8EEC66A00EB27
:108C00000C4007EE902AB3F94C220144000205EE15
:108C1000902AB3F94822F8EEE77A48BF01F17F4184
:108C200004EE902AB3F94A22F8EEE55A07EE101A3C
:108C300067EEA37A06EE902AF8EEE44AB3F94622EC
:108C4000F8EEE66A012005EE102AB3F94422E7EEB9
:108C5000A54AB8EEC55A04EE102AB8EEC77AB3F9A1
:108C60003A22B8EEC44AA7EEA65AD3ED8F6A27EE91
:108C7000237A05EE902AA4EEA76AB3F93822F8EE1B
:108C8000E66AF8EEE55A04EE902AF6EE003AE7EED0
:108C9000046AF8EEE44AA5EE076A65EE875AB0EE7C
:108CA000667AE4EEA35AA7EE867AC3ED955A83ED71
:108CB000947A7047F01A01200821843630B10A4BAB
:108CC000D3ED947AFDEEE77AC0ED007A51B1064B10
:108CD0009FED067AD3ED957A67EE877AFDEEE77A17
:108CE000C1ED007A704700BFF01A01200000C842B1
:108CF000704700BF012070470120704770477047E0
:108D00000120704730B5002385B0E72105468DF876
:108D100007300DF107020123154C19F00DFE9DF8E7
:108D2000073013F003031FD0052302AAE8212846C9
:108D300019F002FE9DF80A209DF80910130412F0A4
:108D4000800F43EA01239DF8081014BF4FF07F42C3
:108D500000220B431343C4F85832BDF80B300120F6
:108D6000A4F85C3205B030BDC4F85832F7E700BF54
:108D7000F01A01200B4A642310B5D2F8584263431D
:108D800048BF03F6FF731B130360B2F85C320A227C
:108D900053433022B3FBF2F303F584531A330B60D1
:108DA00010BD00BFF01A012008B500684DF068FF43
:108DB00078B9094A012092F8193192F818111B026A
:108DC00092F81A2143EA01431343044AC2F860327D
:108DD00008BD0020FCE700BF24020020F01A01209B
:108DE00008B500684DF04CFF78B9094A012092F8A7
:108DF000193192F818111B0292F81A2143EA014323
:108E00001343044AC2F8643208BD0020FCE700BFE7
:108E100024020020F01A01202DE9F74F544AB2F83D
:108E20007232B2F86E621B02B2F87472CDE90001C0
:108E3000D2F86012C91AB2F870326EEB0E0EA3FBB4
:108E4000010403FB0E44C009B2F86C3240EA4460EE
:108E50001B04E411C018A6FB013506FB0E554FEAB2
:108E60001323B2F86A6244F1000443EA0563F6038F
:108E70002D129B19A7FB012607FB0E664FEAD25263
:108E800045F1000542EA4622F61512F5FA6C46F164
:108E9000000BBCF5FA6F7BF100074CDAA2FB0278FD
:108EA0004FF0050A02FB06F908EB4909A7FB0A780F
:108EB0000AFB09884FEA5709BF0849EAC87947EA17
:108EC0008877B0EB090064EB6804DB1B294F65EB86
:108ED000A805BC454FF0FF377BEB070720DA40F6CB
:108EE000AC57D21946F100065643A2FB027202EBC0
:108EF0004606FA004FEAC608BA1A48EA577866EBFF
:108F00000808101844EB08044FF00B08A7FB087280
:108F100008FB06267F0847EAC677DB1B65EB66057C
:108F200001FB0EFEA1FB011202EB4E0EC90F41EA3E
:108F30004E01BCEB010C009A92B10D4AD2F86412BA
:108F4000A1FB032301FB0535520D009B42EAC5221C
:108F50006D15121A65EB0404D20B42EA44421A6002
:108F6000019B0BB1C3F800C003B0BDE8F08F00BF98
:108F7000F01A012024FAFFFF7047012070470120FA
:108F8000704708B500684DF07BFED8B90E4A0F490E
:108F900092F81D3192F81C011B0243EA004392F83B
:108FA0001E01034392F81F01C1F8783292F8203174
:108FB00092F821211B0243EA004301201343C1F828
:108FC0007C3208BD0020FCE724020020F01A0120BA
:108FD0002A4BD3F87C2293EDA26AA2F50002D3EDCE
:108FE000A16AD3EDA07A07EE102AD3EDA55AD3EDEE
:108FF000A44AB8EEC77AD3F8782293EDA94AA2F52D
:10900000000293EDA75AE7EE066A93EDA66AE7EE33
:10901000267A06EE902A93EDA37AF8EEE66AE5EE5C
:10902000A74AD3EDA85AA4EE275A93EDAA4AA7EE71
:10903000A47AD3EDAB4AA5EE276AE6EEA45AE4EE95
:10904000275AA5EEA66AA6EE867AB5EE407AF1EE2C
:1090500010FAF5EE407A1CBFBDEEC77A80ED007ABB
:10906000F1EE10FA08D0FDEEE77A17EE903A002BF9
:10907000B8BFFF331B120B60704700BFF01A01200E
:10908000134BD0F8D8105B68D0F8E02010B5044638
:10909000581A824200DC22B9D4F8E4200A44C4F809
:1090A000DC2094F8D020C4F8D830012A05D0D4F8B8
:1090B000D4300133C4F8D43010BD04F1E801201DD0
:1090C00019F086FAD4F8D4300133C4F8D43010BD86
:1090D000001000E010B5104B04465868D4F8E410B6
:1090E000D4F8D83094F8D0200B44C4F8D800012A22
:1090F000C4F8DC3005D0D4F8D4300133C4F8D4300F
:1091000010BD04F1E801201D19F062FAD4F8D43042
:109110000133C4F8D43010BD001000E070B586698A
:109120008AB0054696F8DC30012B23D0023B012B98
:109130002BD8D6F89C308C22154CEC461A700FCCEC
:10914000ACE80F00D6F89C300093D6F8A03001931D
:109150000FCCACE80F0094E80300AB698CE8030087
:1091600003F11000694619F033FAAB691A69136A02
:10917000002BFCD1D6F8A030B3F90220EA81B3F974
:1091800004202A82B3F906306B8201200AB070BD38
:1091900058D7050810B5044682B0806906236A4690
:1091A00090F84C11103019F0D3FB58B1BDF80010F5
:1091B000BDF80220BDF8043049BA52BA5BBAE18169
:1091C0002282638202B010BD10B582B0044690F8CE
:1091D0004D1106236A46103019F0BAFB70B1BDF884
:1091E0000010BDF80220BDF8043049BA52BA5BBA8B
:1091F000A4F8D010A4F8D220A4F8D43002B010BD46
:1092000010B5044682B0806906236A4628211030D2
:1092100019F09EFBBDF80010BDF802200120BDF83A
:109220000430E1812282638202B010BD10B582B0A9
:109230000446062322216A46103019F089FBBDF846
:109240000010BDF802200120BDF80430A4F8D010B1
:10925000A4F8D220A4F8D43002B010BD002307B582
:109260000F218DF807300DF10702012319F070FB73
:1092700028B19DF807306C2B14BF0020102003B0DC
:109280005DF804FB00B583B04FF0000C0123112101
:109290000DF1070298388DF807C019F059FB03B09B
:1092A0005DF804FB8369F0B593F8DC208BB00546CC
:1092B000012A27D0023A012A2FD893F84C21EC46F4
:1092C000D3F89C1062F07F03154C0B708669D6F8BA
:1092D000A0305F1C0FCCACE80F00D6F89C30CDE975
:1092E00000370FCCACE80F0094E803008CE80300D3
:1092F000694606F1100019F06BF9AB6919690A6A41
:10930000002AFCD1D3F8A0305A8852BAEA819A8850
:1093100052BA2A82DB885BBA6B8201200BB0F0BDA7
:1093200080D70508F0B590F8DC308BB00446D0F853
:10933000A060012B4BD015D8D0F89C304FF0FF32F5
:1093400005211A605A609A60DA60D0F8E030C0F8FF
:10935000F010B3F57A7F54D8032380F8DC30012075
:109360000BB0F0BD023B012BF9D890F84D31EC4623
:10937000D0F89C2063F07F03384D1370D0F8A030F4
:109380005F1C0FCDACE80F00D4F89C30CDE900375E
:109390000FCDACE80F0095E803008CE803006946A8
:1093A00004F1100019F014F92269136A002BFCD1A2
:1093B000738801205BBAA4F8D030B3885BBAA4F8F4
:1093C000D230F3885BBAA4F8D4300BB0F0BD90F87B
:1093D0004C2190F84D319B1A5B100133DBB236F80B
:1093E000132006EB430653BAA0F8D03073885BBA5B
:1093F000A0F8D230B3885BBAA0F8D43001200BB00B
:10940000F0BD03691A7B2AB35B691BB390F89830EF
:1094100003B390F84C310122D0F89C0063F07F0335
:10942000C4F8A4400E49037094F84D3194F84C01EF
:1094300084F800211B1A84F8DC20D4F8A02007331C
:10944000C4F804110132D4F89C10C4E93E23C4F8D6
:10945000F41084E7022384F8DC3080E780D7050825
:109460000180000870B544F23B33044690F82101B6
:10947000A4F84C3100B970BD19F048FE21460546EC
:10948000A8B126220023C2800D4A41F80C2F1A46AB
:109490004DF0F6FAAB884FF00042B3FA83F332FA9C
:1094A00003F3E8D007490A6813430B6070BD044C0E
:1094B0000346024641F80C4FBDE870404DF0E0BA5B
:1094C00081900008003C01400269C3682DE9F04723
:1094D00012EA03092AD005460E464FF000474FF026
:1094E0000008B9FA89F327FA03F21B3BD24309EAD1
:1094F00002092A61042B16D8DFE803F0352C231A61
:109500000300B36A002B37D003F1FF3AC6F8288076
:109510001FFA8AFA746A34B1236820465146984784
:109520006468002CF8D1B9F1000FDAD1BDE8F087FA
:109530007068696B036889B29847B9F1000FD0D1A0
:10954000F4E7B068A96B036889B29847B9F1000FD6
:10955000C7D1EBE7F068E96B036889B29847B9F1C6
:10956000000FBED1E2E73069296C036889B29847E1
:10957000B9F1000FB5D1D9E7E96A1FFA81FAC9E755
:1095800010B5074C94F8B0320BB9002010BD1AF09A
:1095900035F8D4F8B432C01AD0F5FA50F6D5F4E75D
:1095A000F01A012070B505460C46FFF7E9FF2B685D
:1095B0005D6808B11AF05AF9064B00222846492185
:1095C00083F8B022224693F8B132BDE8704019F01A
:1095D000B3B900BFF01A01202DE9F041324F07EB7B
:1095E000401898F824300BB9BDE8F08100EB8003F7
:1095F0000E460021044607EB4313450193F826214C
:1096000083F8261188F80A2054F07EF800283BD110
:109610003D4426482E8100EB441054F06DF83B7811
:109620002A6ABBB1E9680124D2F8AC308C4003F15E
:10963000C00110F4004F4FEA400203F10C0390B256
:1096400002BF53F8082C224343F8082C9942F0D16A
:10965000BDE8F081E9680124D2F8AC3001F11002D4
:1096600003F1C001944010F4004F4FEA400203F1AF
:109670000C0390B202BF53F8082C224343F8082C85
:109680009942F0D1BDE8F081094B93F8182302EB21
:10969000420203EBC203234493F8C562002EB7D005
:1096A000012388F80A30B3E7240200202C020020AE
:1096B000F01A012010B5044653F0A2F901462046E5
:1096C00089B2BDE8104087E72DE9F04153F0E8FF8B
:1096D00098B31D4ED6F82456002D12DD002437789D
:1096E00006F5C660A046013417B1037F012B1FD0D9
:1096F0004269AC4200F58670136843F001031360C1
:10970000F1D119F07BFFD6F82C46C6F82806002CBC
:109710000CDD0E4B03EBC4041968083333F8042C3A
:10972000C868A34242EA0002CA60F5D1BDE8F081F0
:1097300080F8FC80FEF742FDDAE74CF0D5FC00280B
:10974000C7D1BDE8F08100BF24020020840C0020B6
:109750002DE9F04F4D4C83B02378F3B9D4F824367B
:10976000002B16DD00264A4831464769D0F8AC3058
:109770003D6803F1C00225F001053D6059600C33DE
:109780009342FBD10136D4F8243600F58670B342FB
:10979000EBDC012003B0BDE8F08F3E4BDFF8009119
:1097A000D3F81CB319F02AFF59F8B02CD4F82816B6
:1097B0001432401AB0EB420F64DBA9F1AC0704F19C
:1097C00008060025DFF8DCA0019718E0B0F5606F0F
:1097D00048D0019B98814FF6FF712F4B5A46411A92
:1097E0004FF05C0018BF012100FB053017F0D2FFDD
:1097F000019B013520361433082D01932ED0636868
:10980000AB422BDDB3694FF6FF78244FD3F814C079
:109810007268D3E93D015FFA8CF32CF0FF0C103B2A
:10982000A7FB03731B091AF803309C44DCF80430CF
:109830009BB2C91A53F058FF4FF6FE739842D7D027
:1098400059F8A43C404503F1010349F8A43CBDD1BB
:1098500059F8A83C013349F8A83CBCE7012289F833
:109860005A207BE70B4A92F8183303EB430302EBD1
:10987000C3032B4493F8C5320D2BAAD18023019A40
:109880009377A8E7002003B0BDE8F08F2402002002
:1098900054080020F01A012078130020ABAAAAAACD
:1098A0001C130020E0570608F8B5054600F1100427
:1098B000FFF7D8FD95F8D830072B5BD195F81D310F
:1098C0000226002B58D1374680226B21204618F003
:1098D000D9FE64201AF038FA07226821204618F0D1
:1098E000D1FE64201AF030FA00226B21204618F0D5
:1098F000C9FE64201AF028FA01226B21204618F0D4
:10990000C1FE0F201AF020FA1B21FA00204618F0A1
:10991000B9FE0F201AF018FA1C21F200204618F0A8
:10992000B1FE0F201AF010FA2846FEF77DFB1A212F
:109930000246204618F0A6FE0F201AF005FA95F808
:1099400020211921204618F09DFE64201AF0FCF910
:1099500010223721204618F095FE0F201AF0F4F956
:1099600020460122382118F08DFE0F20BDE8F84076
:109970001AF0EAB90326A6E70327A5E72DE9F34184
:10998000144698460DF10702012306460F4618F0CB
:10999000DFFF88B1022019F069FF9DF807503946B2
:1099A000304625EA040444EA08028DF8072018F03E
:1099B00069FE08981AF0C8F902B0BDE8F081642386
:1099C00073B500F1100400930123054612212046CF
:1099D0001A460126FFF7D2FF02220D21204618F079
:1099E00051FE01201AF0B0F902220E21204618F093
:1099F00049FE01201AF0A8F974221021204618F01F
:109A000041FE01201AF0A0F9AC221121204618F0E5
:109A100039FE01201AF098F944237C2212212046B5
:109A20000096FFF7ABFF0623132120461A46009647
:109A3000FFF7A4FF00231722152120460096FFF709
:109A40009DFF0223204618211A460096FFF796FF35
:109A500095F8210188B119F059FB044608B1262375
:109A6000C3802946084B204641F80C3F00231A4684
:109A70004DF006F8204619F0EBFA044817F0E4FE22
:109A8000A88202B070BD00BF518400088096980083
:109A90007522F42118F0F6BD7B22F42118F0F2BDF6
:109AA000836810B5044682B01BB19A881968120405
:109AB0008A6101201AF048F9A36813B11A689B88DB
:109AC00093610A201AF040F9236800201B6AADF860
:109AD00004005BB92046022301AA802118F006FF8A
:109AE0009DF80530242B14BF00200F2002B010BDBC
:109AF000F0B590F81E318DB00546032B55D090F887
:109B0000DC30D0F8A060012B00F0908016D8D0F89F
:109B10009C30002205211A605A609A609A81D0F820
:109B2000E030C0F8F010B3F57A7F00F28F800323A5
:109B3000012480F8DC3020460DB0F0BD023B012B43
:109B40002FD8D0F89C309222544F0DF1080C1A7087
:109B5000D0F8A0400FCFACE80F000FCFACE80F005B
:109B600097E80300D5F89C308CE8030002A905F1C2
:109B70001000CDE9023418F02BFD2A69136A002B7E
:109B8000FCD1B6F902300124A5F8D0302046B6F950
:109B90000430A5F8D230B6F90630A5F8D4300DB0AF
:109BA000F0BD012420460DB0F0BD3D4E0023012242
:109BB000103006F10C010B938DF814208DF828203D
:109BC0000190CDE90633CDE908330A23CDE90261DE
:109BD00002A9049318F0FCFC2A690198146A002C6D
:109BE000FCD1F289052A18DD338A063AB6F912400B
:109BF000B6F9141014F5004F08BFB3F5004F3769DC
:109C000014BF0123002311F5004418BF01241C4395
:109C10001CBFC5F8D070A5F8D410002AC2D0B0225D
:109C20007E2118F007FD20460DB0F0BDB6F90820E2
:109C30001C46A0F8D020B6F90A30A0F8D230B6F908
:109C40000C30A0F8D43020460DB0F0BD03691A7B6B
:109C5000F2B15B69E3B190F89840CCB1D0F89C10B8
:109C600001230E228C20C5F8A45008700D49C5F8B8
:109C7000FC2085F80031D5F89C2085F8DC30D5F83B
:109C8000A030C5F80411C5F8F420C5F8F83089E70C
:109C90000223012485F8DC3084E700BF58D705088B
:109CA000000000201184000838B5054600F11004BA
:109CB000194817F0C9FDA8822846FFF7D3FB0122F7
:109CC0006B21204618F0B6FC782019F0CFFD204615
:109CD00018221B2118F0AEFC204618221C2118F077
:109CE000A9FC2846FEF7A0F91A210246204618F0E2
:109CF000A1FC95F820212046192118F09BFC204654
:109D00001022372118F096FC204601223821BDE8A8
:109D1000384018F08FBC00BF00127A0038B500F14F
:109D200010050446FFF79EFB03226B21284618F01E
:109D300081FC0F2019F09AFD10226A21284618F0A4
:109D400079FC0F2019F092FD00226C21284618F0B2
:109D500071FC0F2019F08AFD94F820211921284662
:109D600018F068FC0F2019F081FD18221B212846ED
:109D700018F060FC0F2019F079FD18221C212846EC
:109D800018F058FC0F2019F071FD102237212846D9
:109D900018F050FC0F2019F069FD012238212846E7
:109DA00018F048FC0F2019F061FD2046FEF73CF941
:109DB0001A210246284618F03DFC012019F056FDF4
:109DC0000A4817F041FDA0822046FFF7FDF994F9FB
:109DD000D230013308D194F9D030013304D10620B8
:109DE000BDE838401AF0CAB838BD00BF002D3101B7
:109DF00010B50446FFF758FD10226A21A01818F08C
:109E000019FC642019F0A0FF044817F01DFDA08282
:109E10000120BDE8104019F029BD00BF002D31011F
:109E2000F8B500F11004B6227E21054690F81E61B7
:109E3000204618F0FFFB642019F086FFAB691BB1C8
:109E40001A689B881B049361012019F07DFFAB69A0
:109E500013B11A689B8893610A209A4F19F074FF16
:109E600000227C21204618F0E5FB012019F06CFF50
:109E700000225921204618F0DDFB012019F064FF73
:109E80004FF4A47307F1D0025E21204618F0FAFFC8
:109E90000A2019F059FF01222046592118F0CAFB67
:109EA000012019F051FF032E00F081809B224021F8
:109EB0002046854E18F0BEFB012019F045FF032215
:109EC0004121204618F0B6FB012019F03DFF96F81D
:109ED0002133013BDBB2022B5FD9CD224221204648
:109EE00018F0A8FB012019F02FFF0822432120467B
:109EF00018F0A0FB012019F027FF0422582120466A
:109F000018F098FB012019F01FFF0A225321204668
:109F100018F090FB012019F017FF02227C21204647
:109F200018F088FB012019F00FFF20460E227D213A
:109F300018F080FB012019F007FF95F82101D8B136
:109F400019F0E4F80446002800F0B38026232946DF
:109F5000C3805E4B41F80C3F00231A464CF090FD45
:109F6000A3884FF00042B3FA83F332FA03F303D02D
:109F700057490A6813430B60336856499A08B1EB96
:109F8000930F4FF0020306D252085B008A429BB245
:109F900001D9FF2BF8D9AB82F8BD3B44422193F89D
:109FA0001822120162F0320202F0FD0297E700224D
:109FB0004821204618F03EFB012019F0C5FE802202
:109FC0004921204618F036FB012019F0BDFE002281
:109FD0004521204618F02EFB012019F0B5FE06227F
:109FE0004621204618F026FB012019F0ADFE002284
:109FF0004721204618F01EFB012019F0A5FE9B22E8
:10A000004021204618F016FB012019F09DFE324633
:10A01000412120462C4E18F00DFB012019F094FE32
:10A0200096F82133013BDBB2022B3FD83B4442215F
:10A0300093F81822120162F0320202F0FD0220466B
:10A0400018F0F8FA012019F07FFE0822432120467B
:10A0500018F0F0FA012019F077FE0222582120466C
:10A0600018F0E8FA012019F06FFE0A225321204669
:10A0700018F0E0FA012019F067FE02227C21204648
:10A0800018F0D8FA012019F05FFE0E227D2120463B
:10A0900018F0D0FA012019F057FE2046B0227E2198
:10A0A00018F0C8FA012019F04FFE46E7CD224221F0
:10A0B000C5E7064B2946024641F80C3F03464CF0E3
:10A0C000DFFC59E758D70508F01A0120D5900008A1
:10A0D000003C01408096980038B5802205466B21EF
:10A0E00018F0A8FA642019F02FFEF521284618F080
:10A0F000EFFEAC2818D005D8122817D0982817D012
:10A1000000240FE0AF28FBD1092410226A21284641
:10A1100018F090FA28460322682118F08BFA642080
:10A1200019F012FE204638BD0724EEE70824ECE7BC
:10A130000B24EAE738B5152400224E21054618F015
:10A1400079FA962019F000FEF521284618F0C0FE95
:10A15000422807D0472807D0013C14F0FF04F0D173
:10A16000204638BD0C24FBE70D24F9E773B50546FE
:10A1700000F110044B4817F067FBA8822846FFF750
:10A1800071F942F21F530F224E21A5F84C3120469F
:10A1900018F050FA0F2019F0D7FD95F8DB30002B9E
:10A1A00071D095F82031013343F00103B3FA83F302
:10A1B000C3F11F03032B66DC3B4AD25C02F00F02A3
:10A1C0004F212046019218F035FA0F2019F0BCFDFE
:10A1D000019A5021204618F02DFA0F2019F0B4FDF5
:10A1E000324B93F82133022B52D0032B55D0012B45
:10A1F00015BF0A2508252426902614BF06220C2206
:10A2000020460C2118F016FA06F0FC0220460D211B
:10A2100018F010FA20462A010E2142EA162218F000
:10A2200009FA20460C22032118F004FA20462422C1
:10A23000042118F0FFF92046A022052118F0FAF9B0
:10A240002046EE22522118F0F5F92046032214216F
:10A2500018F0F0F920460022632118F0EBF90822EB
:10A260002046652118F0E6F9E421204618F030FE7A
:10A2700000F0EF00642140F06002204602B0BDE82B
:10A28000704018F0D7B90023062285F8DB3095E737
:10A2900006254FF4DC761522B2E704254FF4AC66B0
:10A2A0002522ADE700366E01C8570608F01A0120D6
:10A2B00038B5802204466B2118F0BCF9642019F0EF
:10A2C00043FDF521204618F003FE0546012019F054
:10A2D000CDFA682D1BD18C21204618F0F9FD1828E5
:10A2E0000DD8142834BF00250325204607226821F5
:10A2F00018F0A0F9642019F027FD284638BDA0F118
:10A300005403DBB2072B34BF03250025EDE70025FE
:10A31000F3E7F52108B518F0DBFD702818D008D850
:10A32000422817D0472817D0122814BF0020082031
:10A3300008BDAC2812D006D800F0FD00712814BF6B
:10A3400000200620F4E7AF2814BF00200920EFE723
:10A350000520EDE70C20EBE70D20E9E70720E7E714
:10A3600010B5044600684CF08BFC38B92046062333
:10A37000034AF72150F062FF012010BD0020FCE7E6
:10A38000341E012010B5044600684CF079FC70B909
:10A39000084B93F84A2312B193F8300030B12046AD
:10A3A0000223054AF62150F049FF012010BD00208C
:10A3B000FCE700BFF01A0120701B012010B5044615
:10A3C00000684CF05DFC70B9084B93F84A2312B159
:10A3D00093F8300030B120460323054AF62150F0AF
:10A3E0002DFF012010BD0020FCE700BFF01A012066
:10A3F000701B012010B5044600684CF041FC38B9D0
:10A4000020460623034AF72150F018FF012010BD13
:10A410000020FCE72C03002008B503681A78012A05
:10A4200006D006230C4A042150F008FF012008BD85
:10A4300093F90430094A03EB430302EB431393F807
:10A44000D920202A01D0002008BDD3F898309B697C
:10A450001B04F8D4E5E700BF34030020F01A012004
:10A4600008B503681A78012A06D006230C4A002191
:10A4700050F0E4FE012008BD93F90430094A03EBD3
:10A48000430302EB431393F8D920202A01D0002084
:10A4900008BDD3F898309B691B04F8D4E5E700BFEA
:10A4A000201D0120F01A012010B5044600684CF070
:10A4B000E7FB014690B923681A78022A08D1196A85
:10A4C00021B90323064A204618F010FA012006E0BD
:10A4D0000323034A204650F0B1FEF7E7002010BDE9
:10A4E0003C030020E0E710B5044600684CF0C8FBD0
:10A4F00038B920460623044AF72150F09FFE012078
:10A5000010BD0020FCE700BF4003002008B5006834
:10A510004CF0B6FB002868D1354BF1EE007AF7EE2F
:10A52000004A012093F8482393F847131202D3ED11
:10A53000015A93ED027A42EA014293F849130A4321
:10A54000D968A2F500028A1A93F8441306EE902AFD
:10A5500093F84523B8EEE66A120265EEA76A42EA6E
:10A56000014293F8461366EEC66A0A439969A2F55A
:10A570000002E7EE076A8A1AB1EEE66AFEEE006AAA
:10A5800037EE067A93ED046A66EE277A27EE267A8E
:10A59000D3ED076A87EE255A9FED167AD3ED055A5B
:10A5A00025EE077A83ED0B7A07EE102AB8EEC77A0C
:10A5B00067EEC77AE5EEA57AB1EEE77AD3ED087AD1
:10A5C000E5EE267AD3ED096A76EEA46AE5EE276A0F
:10A5D00077EE657AB6EE007A66EE266A67EE877ADF
:10A5E00087EEA67A83ED0A7A08BD0020FCE700BF5B
:10A5F000F01A01200000803B016803460A78012A16
:10A6000004D0022A01D10B6A63B1704707484FF0AA
:10A61000130C19791B2280F84BC31B6893F90400B3
:10A620004CF0ACBA13221B2118F004B8F01A012028
:10A6300058214CF03FBB48214CF03CBBBFF34F8F3F
:10A640000549064BCA6802F4E0621343CB60BFF3CE
:10A650004F8F00BFFDE700BF00ED00E00400FA05EA
:10A66000014B53F8200070475028004002692DE943
:10A67000F043177885B004460D46012F18D10B79A9
:10A680004FF0000900F11008013B8DF8059013719F
:10A690000DF105024B7975214B4508BF6823037501
:10A6A0003B46404618F054F9064600283ED1226940
:10A6B00002231370EB7823B90026304605B0BDE8BD
:10A6C000F08304F11007A978384617F0DDF8064644
:10A6D0000028F1D0E87818F019FDA0612B7801333B
:10A6E000DBB210B1C371222383710D2118F07AFD02
:10A6F000A06917F0C3F8464AD2F81C33632BFBD984
:10A70000444817F0A1F8DFF81481434BA08202E01F
:10A7100058F8043B5BB33846984703460028F7D007
:10A72000206984F8D83050F027FAC6E7206950F045
:10A7300023FA3B4649460DF10602404618F008F957
:10A740009DF8063003F07E03682B8DF8063000D1AB
:10A75000A0B99DF8053003F07E03682B8DF8053015
:10A760000FD0702BA9D1042384F8D830A5E7E8785E
:10A770001E4618F0CBFC18F055FD9EE784F8D87003
:10A780009BE7062302224046194684F8D82002AAF5
:10A7900018F0DEF89DF80D309DF80B209B0052005C
:10A7A00003F0040302F0020213439DF8092002F0B3
:10A7B000010243EA020113430CD058B1012B1FD010
:10A7C000022B03D001F0030103291DD1012384F8DA
:10A7D000D93072E70DF10702012340460C2118F031
:10A7E000B7F880F001009DF80720C0B202F00F0218
:10A7F00050B9B2FA82F35B0932B1042AE6D1E6E736
:10A80000002384F8D93058E7032019F0B7FB54E748
:10A81000F01A012040420F00B1A2000878D90508C3
:10A8200030B490F8443000F10801474A012BC2F8D7
:10A830004C136ED083684549DC68454D24F46004B0
:10A84000AB42DC60DC6844F46004DC609C6B24F4A4
:10A8500040149C639C6B44F480149C639C6B24F4B4
:10A86000F8449C639C6B44F488449C639C6824F487
:10A8700070249C609C689C609C6824F440149C60DC
:10A880009C689C605C6824F480645C605C6824F470
:10A8900080545C605C6901EA04015961596959613D
:10A8A00045D0DC68294924F0E064DC60DC6844F0D1
:10A8B000E064DC609C6B24F440149C639C6B44F467
:10A8C00080149C639C6B24F478249C639C6B44F4FC
:10A8D00010249C639C6824F470249C609C689C6099
:10A8E0009C6824F440149C609C689C605C6824F420
:10A8F00080645C605C6824F480545C609C692140E6
:10A90000134C9961A3429969996116D0002380F88C
:10A9100044301048104B848DC18D408D091B93FB32
:10A92000F1F3C2E9D404C2F8583330BC70470B4C81
:10A93000616841F400016160B3E708494B6843F482
:10A9400000034B60E2E700BFF01A012000F0FFFFB8
:10A9500000200140007AF01F8038010000230140F0
:10A96000704700BF014842F0CFBF00BF881B0120E5
:10A97000084810B4D0F89830D0F8CC4099691A68DB
:10A9800024B1234698305DF8044B18475DF8044B1A
:10A99000704700BFF01A0120014842F0B5BF00BF68
:10A9A000E81B0120084810B4D0F8F830D0F82C414A
:10A9B00099691A6824B12346F8305DF8044B1847AA
:10A9C0005DF8044B704700BFF01A0120014842F0C7
:10A9D0009BBF00BF481C0120084810B4D0F8583174
:10A9E000D0F88C4199691A682CB1234600F5AC70F7
:10A9F0005DF8044B18475DF8044B7047F01A0120CE
:10AA00002DE9F84FD54F6023044603FB0073D3F8BC
:10AA10008450002D00F09D81D3F88C601EB1B37975
:10AA2000002B40F09681602303FB0473D3F89090D1
:10AA3000B9F1000F04D099F80630002B40F089815D
:10AA4000631CDBB216B11522F371B271B9F1000FBC
:10AA500004D0162289F8073089F80620287C4FF0A8
:10AA600009084BF0E7FC304616F008FF484616F0A0
:10AA700005FF1121304618F0B5FB1121484618F0AA
:10AA8000B1FB4FF0330A02E00A2018F0EFFE304627
:10AA900018F00AFB10B9BAF1010AF5D1304616F0E8
:10AAA000E7FE052018F0E2FE304616F0E7FE05202E
:10AAB00018F0DCFEB8F10108E3D130464FF0600B2E
:10AAC00016F0D6FE052018F0D1FE484616F0D0FE4E
:10AAD0000BFB04FB052018F0C9FE304616F0CEFE35
:10AAE00007EB0B0A052018F0C1FE484616F0C6FE1B
:10AAF0009AF8943030460422002B994E14BF3E2120
:10AB00001E2118F04FFB9AF894305E444846002B03
:10AB10004FF00402C14614BF3E211E2118F042FB33
:10AB20004C224146304652F057FCDAF884309FED13
:10AB30008D7AB0EE084A5B68F7EE003ABAF896B044
:10AB4000CAF89830884B9FED895A9A68884BC2F3AF
:10AB50008222134493F838223B68D34007EE903AA0
:10AB6000F8EE677AC7EE275A07EE90BA9FED817A22
:10AB7000F8EEE77AC7EE274ADFED7F7AB0EE007A8B
:10AB8000E5EE877AA5EE875A25EE844A37EE856A88
:10AB900074EEE72ABBF5C87F40F2145309F1010EA9
:10ABA000D7BF1946322364234FF49670C8BF78206C
:10ABB00007EE90EAD4BF4FF4167C4FF4827C034436
:10ABC000B8EEE77AC8BF4FF4FA7107EE903A27EE75
:10ABD000257A01EB0C03F8EEE76A86EE873A73EE0E
:10ABE000636AFCEEE67A17EE902A07EE90CAB8EE9A
:10ABF000E73A07EE903AF8EEE77A23EE243AC3EE0E
:10AC0000276A36EEC53A72EEE66AC3EE077A77EE49
:10AC1000E37AFCEEE77A17EE901AC6EE877A77EEC3
:10AC2000E37AFCEEE77A17EE903A03F1020C0CEBB4
:10AC3000010AF0EE466A07EE90AAF8EE677AE7EEB0
:10AC4000276AF4EEE64AF1EE10FA00F384805FFA28
:10AC500082FCBCF10F0F00F29580323807EE900AAB
:10AC6000F8EEE77A77EEC47AC7EE876AFCEEE67A0A
:10AC700017EE90CA5FFA8CF00F2800F2838088B23A
:10AC8000FF287FD898B2FF287CD840EA09731005C6
:10AC90004FEA0C4200F07F6002F47F02034313434B
:10ACA000364A02EA012143EA01086020012300FB41
:10ACB000047400273046C4F89C80C4E92873C4E9B2
:10ACC0002A77C4E92D774FF075FA94F8D930202B04
:10ACD000D9B21AD194F8D830012B16D0242384F895
:10ACE000D930D4F898301A6822F001021A601A6834
:10ACF00022F480521A601A681A601A6842F001023F
:10AD00001A6084F8D91084F8D870002195F91200DF
:10AD10004BF086FE95F91230AA7C002B07DB02F07F
:10AD20001F0101225B098A40154941F823200021B7
:10AD300095F911004BF074FE95F911306A7C002BE7
:10AD400007DB02F01F0101225B098A400C4941F830
:10AD50002320BDE8F88F013169E700BFF01A012018
:10AD6000881B0120286B6E4E0038024000001643FD
:10AD700058D70508002474490000704200FFFF0006
:10AD800000E100E0BEF10F0F8FD0F14602E700BFF7
:10AD90000248036903B11847704700BF0000012053
:10ADA0000248436B0BB12430184770470000012064
:10ADB0000248836D0BB148301847704700000120EE
:10ADC0000248C36F0BB16C30184770470000012078
:10ADD0000348D0F8A0300BB190301847704700BF3F
:10ADE000000001200348D0F8C4300BB1B43018473C
:10ADF000704700BF000001200348D0F8E8300BB1D5
:10AE0000D8301847704700BF000001200348D0F831
:10AE10000C310BB1FC301847704700BF0000012017
:10AE20000348D0F8303113B100F5907018477047DF
:10AE3000000001200348D0F8543113B100F5A2708E
:10AE400018477047000001200348D0F8783113B14B
:10AE500000F5B47018477047000001200348D0F88F
:10AE60009C3113B100F5C6701847704700000120EF
:10AE70000348D0F8C03113B100F5D87018477047B7
:10AE8000000001200348D0F8E43113B100F5EA7066
:10AE900018477047000001200348D0F8083213B16A
:10AEA00000F5FC7018477047000001200348D0F8F7
:10AEB0002C3213B100F507701847704700000120CD
:10AEC0000138064A064B00EBC00052F820009842B9
:10AED0000CBF952096204BF0ADBA00BF00000120BA
:10AEE00000600240013800EBC000F8B54FEA800C6A
:10AEF000104C1D46104B54F80C00174664440E4687
:10AF000098420CBF952096204BF094FA94F91500C6
:10AF1000B9092661A5614BF083FD94F91530002B2A
:10AF200007DB03F01F0001225B090449824041F85E
:10AF30002320F8BD000001200060024000E100E095
:10AF4000AA4B2DE9F04F97B093F86E83A84B0025DC
:10AF5000A84F0093A84BA3F5F16ADFF8B092DFF891
:10AF6000B0B24E46B30AA3F58013522B55D85344C2
:10AF700093F840320D2B50D8B8F1010FFC5640F039
:10AF80001C81012C3FD14FF000094946204619F0A1
:10AF90002BF919F0B1F990F800C0BCF1000F18BFFF
:10AFA000BCF1540F14BF4FF0010C4FF0000C40F0F7
:10AFB000008109F104091FFA89F9B9F1100FE4D1F0
:10AFC000002D00F0B9808A4A00210DE0534493F827
:10AFD00040320D2B0FD8FB56A3420FD0013102F5A2
:10AFE0008672A94280F2A480906803689B0AA3F548
:10AFF0008013522BEAD90023A342EFD143799BF867
:10B0000005009842EAD17C4B5B4513D05BF8206F7A
:10B01000B30AA3F58013522BA9D9B8F1010FF2D0CE
:10B0200001230024B8F1020FADD1002BABD0724B3D
:10B030005B45EBD1009B013503F58673042D00932E
:10B040008BD16E4B4FF00108DFF8C8B1009303F5C8
:10B050007C73ABF1080A059308F1FF33DAF804209A
:10B060009A4262DDDBF80C60002E00F0D383316879
:10B07000B78801F13F41B7FA87F701F57E01C7F1C3
:10B080001F07890ADAF82456002D40F3C780584B71
:10B09000002405E0013403F58673AC4200F0BC8067
:10B0A0001A688A42F6D14FF48673514ACBF804707D
:10B0B00003FB04245FFA88F3CBF8184016B1F37150
:10B0C0000323B3717A000321012301FA02F0A16C7A
:10B0D00003FA02F20143A164216D0A4322659AF842
:10B0E0000020002A6ED0626DBB401A43626516B123
:10B0F0003268B188916199B20122D4F8AC00FCF7B2
:10B10000A7FF204608F10108FDF758F80123009A2F
:10B11000B8F1090F8BF81C300BF1200B0BF8033C36
:10B12000537402F11803009396D117B0BDE8F08F65
:10B13000BCF1000F7FF467AF584617F04DFF9BF846
:10B140000540C3B2022B00F26D83431C2C4A5BB254
:10B1500003EB430398002B4B03F5727104E0994213
:10B1600000F0608353F82C2FB242F8D11A79A24232
:10B17000F5D11A58002AF2D094460023224A516889
:10B180000133614512D0102B02F12402F7D14FF0A8
:10B19000FF3303EBC3031C4A02EB83031B7F002B2B
:10B1A0007FF431AF009BC3F808B043E7DBB2013B4B
:10B1B000EFE7002D7FF407AF25E7B4F1080318BFD0
:10B1C00001232FE707F110029340626D134363657B
:10B1D0001EB1B38832681B04936101210022D4F8A8
:10B1E000AC00B94089B2FCF733FF8AE7F01A0120BE
:10B1F00054080020D0570608E0DE05089816002005
:10B2000000000140ECD905080000012000040140C5
:10B21000E0DD05082C020020032C6CDC4FF4867363
:10B2200003FB05A3D3F83806002800F0E982C3F831
:10B2300030160131CAB283F839270292542283F8BA
:10B2400038276B1C0268CAF824364479019217F03B
:10B25000C3FEA84B864693F8833303939BF81030C4
:10B260000493C3B2022B00F2DD8200F1010CA2496B
:10B27000A24800234FFA8CFC019A0CEB4C0C4FEACD
:10B280008C0C05E00133172B00F0CC8251F82C0F09
:10B290008242F7D10879A042F4D151F80C0000287D
:10B2A000F0D02C210EEB4E0EDFF8589201FB03F389
:10B2B00093494C4603EB8E030B44D3F8A4124FF48E
:10B2C000867303FB05A3C3F848160021C3F84406A0
:10B2D000636898421ED0013124341029F8D1894B7B
:10B2E00013F8083C5BB9874A5423029902F8083CDA
:10B2F00002F8071C03E003237E4A82F88233824B64
:10B3000082488349834AC3E9D810C3F86C2317B035
:10B31000BDE8F08F4B1C7B49DBB2013B03EBC30361
:10B3200001EB8303197F06910029E8D1029959772F
:10B330004FF4867101FB05F08C21044654201877E8
:10B340002046A310744C0190504404FB03F334686E
:10B35000C0F82817C0F8344603FB01F1059C03EB45
:10B36000430304EB410103EB0313C0F824176B49BB
:10B3700001EB8303C0F8DC363323C0F8E036684BBA
:10B3800001981C185B4B1968039B062B00F0338255
:10B39000072BDFF89CC1634B634814BF4FF0710C5F
:10B3A0001846624B04BF63464FF01C0CB1FBF3F32D
:10B3B000B1FBF0F1013B104601399AB24FF48673AC
:10B3C00003FB05A3A3F8E416A3F89C260293019BB4
:10B3D0002266002203F15801514BA4F858206266FE
:10B3E0001944E265484A42F8B0CC4DF04DFA029B50
:10B3F000D3F8382610680292036843F08003036094
:10B4000053790C2B08D8DFE803F06C0707076407B3
:10B4100007075B07070752004FF4867303FB05A37A
:10B42000D3F83C164FF0600C026800234FF0020E78
:10B43000CDF838C04FF4807C22F001021093CDF893
:10B4400050C04FF0010C1393CDF83CC04FF00A0CE4
:10B450001593CDE911CE02600EAA4DF0D3F84FF44A
:10B460008672029B02FB05A2D2F83C161A680023E2
:10B47000012900F08B81042900F08881102900F057
:10B48000C681402900F08281B1F5807F52D0B1F5AC
:10B49000806F4FD0B1F5805F00F0C081B1F5803F83
:10B4A0004FF03C030CBF08214FF4006144E04FF41F
:10B4B00086734FF4805103FB05A3C3F83C16B1E734
:10B4C0004FF486734FF4807103FB05A3C3F83C1659
:10B4D000A8E74FF48673102103FB05A3C3F83C16BD
:10B4E000A0E74FF48673012103FB05A3C3F83C16C4
:10B4F00098E700BFF01A0120ECD9050800000140D0
:10B5000058D70508000001201C13002079F4010819
:10B5100075F4010881F401086B4CA407581700204A
:10B52000540800201055220044950800D0DD060084
:10B5300040771B000821042302F1180050F803C0D3
:10B5400041EA0C01C150029B1879002840F0248187
:10B550004FF48672002302FB05A2D2F83806D2F817
:10B5600044160068026842F001020260D9F8042023
:10B570000133914200F00C81102B09F12409F5D11F
:10B580004FF0FF33AA4A03EBC30352F82300A94B41
:10B5900098420CBF952096204AF04CFF4FF48673DA
:10B5A00003FB05A3D3F83826537910680C2B96BFFC
:10B5B000A1494FF0000C01EB4303A04998BFB3F839
:10B5C000B0C74FF4867303FB05A3A3F840C600235E
:10B5D00006E0904200F019810133042B00F0258130
:10B5E00051F83320002AF4D1DAF82C260132CAF8B7
:10B5F0002C260AEBC302DB00C2F8600A1944069845
:10B6000023469022B1F804E0DFF848924CEA0E0C91
:10B61000A1F804C08A49FFF765FC60694FF486739E
:10B620004FF4804C03FB05A5036843F0100303604F
:10B63000036843F0140303600023C4E91F33C4E923
:10B640002833C4F8A8300423D5F84826C4F89C3021
:10B650004FF48063C4F894204FF44032C4F884302F
:10B66000C4F898204022A267D5F8E026C4F89020BC
:10B67000C2B2D5F8341620F0FF00103A1831216715
:10B68000A9FB0231019B4FF480520909C4F88820BC
:10B6900003F170026B4B1A44D5F8DC36C4F88CC049
:10B6A00063674DF0A9FCD5F84406019B4FF40031C7
:10B6B000D0F800E04FF4006C03F1B802614BC4F81D
:10B6C00020E0D0F814E01A440023C4F824E0D0F8B5
:10B6D00004E0C4F828E0D0F808E0C4F82CE0D0F882
:10B6E0000CE0C4F8C830C4F830E0C4F8F030C4E965
:10B6F0003033C4E93A33D5F8483601930423C4F80B
:10B70000E4304FF48063C4F8CC30019BC4E9373196
:10B71000D5F82837C4F8D830C3B220F0FF00103B6A
:10B72000A9FB0331D5F83436C4F8D0C01033090969
:10B73000C4F8B830D5F8243701934FF48043C4F8E7
:10B74000D430019BC4F8BC304DF056FCD5F84426EB
:10B750005FFA88F3116861635169A1635168E1631D
:10B7600091682164D1686164116841F01001116031
:10B77000116841F014011160049ACBF804708BF841
:10B780001020CBF80C60CBF8184098E40821D3E6E1
:10B79000DBB20693013BF5E6039217F0B7FC039A80
:10B7A00020B30268244B02F13F42079002F57E026B
:10B7B00003EB9222029B92F8A8071A7A03924AF0AE
:10B7C00039FE079B039A99880D92002218680C9203
:10B7D000089108A90393CDE90A22022209924DF0AB
:10B7E000D7F85422039BDA80029B1A68536C43F407
:10B7F00000435364ACE614484FF0380C134BD5E5C6
:10B800000223134A82F8823379E5DB00F6E64FF42F
:10B81000006191E64FF0FF37394633E44FF40061A1
:10B82000042389E600235B68FFDE00239B88FFDE9C
:10B83000000001200060024058D70508840C002059
:10B840009D80000854080020882A1100A0BB0D002C
:10B85000F01A0120ABAAAAAA2DE9F041834DC0EB52
:10B86000001605EBC606D6F88433002B00F0BC802A
:10B870000446070196F8F4034AF0DCFD96F8F43329
:10B88000012203F01F015B09013B8A40032B0AD808
:10B89000DFE813F0E0000400E600DA0074494B6AC8
:10B8A00023EA02024A623B1B04F1010805EBC303D1
:10B8B0005FFA88F893F8880317F028FC18B1122370
:10B8C00080F8078083713B1B05EBC30393F8890362
:10B8D00017F01CFC064618B1132380F8078083710B
:10B8E0003B1B05EBC30393F88A0317F00FFC18B159
:10B8F000142380F8078083713C1B2E21304605EB12
:10B90000C40494F88C2317F04DFC94F88A0317F0C4
:10B91000FDFB94F88D230E2117F044FC94F8880366
:10B9200017F0F4FB94F88B232E2117F03BFCD4F88E
:10B93000843350491A688B4222F040021A6055D075
:10B940004D4A934269D002F58062934258D1484AE9
:10B95000116A41F400411162116A21F4004111623F
:10B960005A6842F480525A601A68520634D44349E5
:10B970001E68D1F85442D1F86002D1E99025B0F5A3
:10B98000005F42EA0502D1F84C5242EA0502D1F8C2
:10B99000505242EA0502D1F8585242EA040242EA01
:10B9A0000502D1F85C5242EA0502354D42EA000236
:10B9B00005EA060542EA05021A60D1F848225D68E8
:10B9C00042EA14422F4C04EA050442EA04025A6097
:10B9D00002D1B1F864221A61DA6922F40062DA61F4
:10B9E0001A6842F040021A60BDE8F081204A516AAC
:10B9F00041F480515162516A21F480515162AFE7A4
:10BA0000214A934213D11A4A516A41F400515162BA
:10BA1000516A21F400515162A2E7154A116A41F4BA
:10BA200080411162116A21F48041116298E7174A3E
:10BA3000934295D10E4A516A41F480115162516A84
:10BA400021F4801151628BE709490B6923EA020254
:10BA50000A6128E706494B6923EA02024A6122E7A4
:10BA600003490B6A23EA02020A621CE7F01A01206A
:10BA70000038024000300140003800400000012042
:10BA80004000FFFFFBF0FFFF003401400050014089
:10BA900030B40469002341684025E46882690C31B0
:10BAA000546244699560536093631160C2E9033343
:10BAB000C2E90533C2E90733C2E90A33C2E90C33EC
:10BAC00084B1C269E068936350621160C2E90133D6
:10BAD000C2E90333C2E90533C2E90733C2E90A33D5
:10BAE000C2E90C3330BC7047114A037A0168D35C59
:10BAF00010B4CC58CA1824F00104CC501368DB07EA
:10BB0000FCD4037D1F2B09D9203B20225DF8044B78
:10BB100002FA03F343F01803CB60704720225DF86C
:10BB2000044B02FA03F343F018038B60704700BF25
:10BB3000E0570608F0B50668356A00295CD12F6821
:10BB4000AC68D6F818E0002F5FD0364B3B40B3F11D
:10BB5000005F61D007F01F0104F11F0327F01F02EF
:10BB6000194421F01F01BFF34F8F00290BDD114451
:10BB700002F12003DFF8B0C08B42CCF868221A46ED
:10BB800003F12003F8D1BFF34F8FBFF36F8F03682A
:10BB90004FF48062CEF80470CEF814205B69CEF8C2
:10BBA000204043B36868F669002837D01D4B034036
:10BBB000B3F1005F1AD000F01F0220F01F011F3206
:10BBC000224422F01F02BFF34F8F002A0ADD0A44ED
:10BBD00001F12003144D9A42C5F87012194603F181
:10BBE0002003F8D1BFF34F8FBFF36F8F4FF4806303
:10BBF000706073613462F0BDEC69002CFBD06F693A
:10BC00001435D6F818E0002F9FD1084A3346CEF8F5
:10BC10001470CEF80420C1E73346B9E7044B7061D5
:10BC20007360E7E70000FFFF00ED00E01800002070
:10BC30001C000020F8B507680646D7E90454002C1C
:10BC400050D0A0612B7D1F2B39D82022286802FA02
:10BC500003F343F018038360237D1F2B3AD920227E
:10BC6000203B02FA03F3226843F01803D3606368B1
:10BC7000002269680A601A601A6842F010021A60AD
:10BC8000BA69297A4DF0B8F9FA69217A20684DF03D
:10BC9000B3F92A7A2A492F6833688D5C5A687B5930
:10BCA000206843F001037B51237AC95C435843F079
:10BCB00001034350536843F003035360F8BD203B36
:10BCC0002022286802FA03F343F01803C360237D9F
:10BCD0001F2BC4D8202202FA03F3226843F0180372
:10BCE0009360C4E72A7D6B681F2AA8611FD82021B2
:10BCF000286801FA02F242F0180282600021BA6953
:10BD00001960196841F010011960297A4DF074F931
:10BD10002A7A0B4933682868895C5A68435843F08B
:10BD200001034350536843F002035360F8BD203AC7
:10BD30002021286801FA02F242F01802C260DDE711
:10BD4000E0570608014B43F8201070475028004088
:10BD5000F0B5A24CA5B0E368022B00F03482A048F5
:10BD6000A04AA149121A51F00FFBA048A04AA149CC
:10BD7000121A51F009FBA368012B00F2C1809E4A00
:10BD800003EB43039D4D02EB430132F813304A8825
:10BD90008988C5E99A32C5F87012994C0021994EEC
:10BDA000B3FBF2F3984A03FB02F2984B3260D4F8EB
:10BDB000882042F47002C4F888201A6842F0010218
:10BDC0001A609960924A1868024092481A60C0F35B
:10BDD0000807914A5A601A6822F480221A60D960D2
:10BDE00007B1FEE78D49A0604FF6FF000A688C4B53
:10BDF00042F400720A60E26802401343E3604AF0D2
:10BE00009DFEBFF34F8FBFF36F8FC4F85072BFF327
:10BE10004F8FBFF36F8F636943F400336361BFF3E8
:10BE20004F8FBFF36F8FC4F88470BFF34F8FD4F878
:10BE3000803043F6E07CC3F3C90EC3F34E335801A0
:10BE400000EA0C01734641EA8372013B5F1CC4F8AF
:10BE50006022F8D1203810F1200FF1D1BFF34F8FBD
:10BE6000636943F480336361BFF34F8FBFF36F8F18
:10BE70006A49664B0A6842F480720A60196C694A22
:10BE800041F080511964196C01F0805102910299BE
:10BE9000116841F4404111601268D5F8680202F45B
:10BEA0004042D5F86C42D5F870120192019A9A6816
:10BEB00002F00C02042A00F08D809A6802F00C0255
:10BEC000082A00F08380514A136843F480331360DA
:10BED000D6F8647504E0D6F86435DB1B642B74D89F
:10BEE00013689B03F7D5494A936803F00C03082BAA
:10BEF0006BD0136823F080731360D6F8647508E084
:10BF00003E4DD5E99A3248E7D6F86435DB1B022B63
:10BF10005BD813689B01F7D40B06640843EA8013CF
:10BF2000611E43EA014340491943384B516011688F
:10BF300041F080711160D6F8641504E0D6F86425EC
:10BF4000521A022A41D81A689201F7D5196C354A5B
:10BF500041F0805119641B6C03F080530393039BE1
:10BF6000136843F480331360D6F8641506E0D6F8FE
:10BF700064355B1AB3F57A7F00F2CB805368DF0338
:10BF8000F5D51368274943F400331360D6F86425C8
:10BF900006E0D6F864359B1AB3F57A7F00F2B980D3
:10BFA0004B689C03F5D54FF400124FF0006304A8D2
:10BFB00004924FF4C07221930723CDE90823032391
:10BFC0000A9341F065FD88B3FEE7FEE75B685A021D
:10BFD0007FF579AF0D4B1B6885E700BF5028004007
:10BFE00000000000283E000034DB060800000020AE
:10BFF000240200204936070824DF0508000001203C
:10C0000000ED00E0F01A012040420F00003802402D
:10C01000FFFFF6FE0000000810300024003C024044
:10C020000003FA050070004008004020694A1368C8
:10C0300003F00F03062B0AD8136823F00F0343F015
:10C0400007031360136803F00F03072B62D1624BE1
:10C050009A6842F4E0529A609A6842F460429A60A8
:10C060009A6822F0F0029A601A68900152D59A6894
:10C0700041F2883122F0030242F002029A60D6F8BF
:10C08000640504E0D6F86425121A8A4242D89A68F8
:10C0900002F00C02082AF5D14E4A136819070AD596
:10C0A000136823F00F0343F007031360136803F0D2
:10C0B0000F03072B2ED1484C484FA36823F4E053BD
:10C0C00043F4A053A360A36823F4604343F4004304
:10C0D000A36041F0A9FCA368C3F303133B4493F8A6
:10C0E000D837D84030604AF029FD002304A8CDE9B4
:10C0F0001333CDE91533CDE91733CDE91933CDE944
:10C100001B33CDE91D33364B049341F0C1FC10B114
:10C11000FEE7FEE7FEE702234FF0007204A8CDE938
:10C120000633D823CDE9042301230B9341F0B0FC5F
:10C1300000B1FEE7D4F88C3023F08073C4F88C3063
:10C14000D4F88C3043F08073C4F88C30A36803F0CB
:10C150000C03042B32D0082B15D0224B33601E4A1F
:10C16000D5E99A31B3FBF1F391683268C1F3031159
:10C170000F4497F8D817CA401B4901FB03F33260FC
:10C1800093421ED0FEE76368626813F4800F636811
:10C1900002F03F0218BF1549C3F3881308BF1149C5
:10C1A000B1FBF2F202FB03F30B4A5268C2F3014205
:10C1B00001325200B3FBF2F33360D0E70B4B336034
:10C1C000CDE725B0F0BD00210320FFF7BBFDFEF752
:10C1D00035FA00BF003C02400038024058D705083D
:10C1E000C0FF03000024F40040420F0000127A0058
:10C1F0001D4B1E48196C1E4A41F0805130B4196421
:10C2000082B0196CFF2401F08051019101990168FD
:10C2100041F480710160CA20196C41F48061196495
:10C22000196C01F4806100915321009D54625062A9
:10C2300051625B6FDB000DD40E4B00210E4A43F8B8
:10C24000041B9342FBD10D4B0D4AC3F8502802B09A
:10C2500030BC7047094A0A4BD2F850289A42EBD1B9
:10C2600002B030BC704700BF003802400070004090
:10C2700000280040542800406C2800400020004066
:10C2800031666542800AA0F58010522808D8054B17
:10C29000184490F840320D2B02D8034AD05670470C
:10C2A0000020704758D70508D0570608F0B5044657
:10C2B000D0F89400434B83B0A16804F1640204F108
:10C2C00018070E68C1B220F0FF0001921039A3FBDD
:10C2D000013109094CF0DAFE616D0023019A012950
:10C2E00084F8583018D0042916D0102955D0402988
:10C2F00012D0B1F5807F53D0B1F5806F50D0B1F539
:10C30000805F55D0B1F5803F4FF03C030CBF6FF01C
:10C31000080C6FF4006C01E06FF0080C06F11805D2
:10C320003046E95801EA0C01E950616D4CF06AF9B8
:10C33000636D012B16D0042B14D0102B0FD0402B83
:10C3400010D0B3F5807F2FD0B3F5806F2CD0B3F52C
:10C35000805F31D0B3F5803F06F1540502D04FF431
:10C36000006100E008212B683A46D4F894000B43A2
:10C3700040212B602162C1B2124B20F0FF00103926
:10C38000A3FB013109094CF037FED4F8942013685F
:10C3900043F01003136003B0F0BD6FF4006CBDE711
:10C3A0006FF0080C0423B9E706F11C050821DAE751
:10C3B0006FF4006C0423B1E706F11C054FF4006133
:10C3C000D1E700BFABAAAAAA944B2DE9F04F1C7885
:10C3D0002DED028B85B034B90124204605B0BDECAB
:10C3E000028BBDE8F08F8E4B8E4FD3F81C3308EED6
:10C3F000103A17F003F997F8F83B0190002B00F082
:10C400000681864B07F15C0AA7F1AC04002603F510
:10C41000927B5D46CDF80CB0D7F84433019AD31A1D
:10C4200003D4EA6D9A4200F3D5807C4A06EB86037A
:10C4300002EB431393F87C3103F0FF020092002BD0
:10C4400000F08E80D5F89410AB6877481A68CBB2AC
:10C4500021F0FF01103BA0FB030374481B09C35CE0
:10C4600019444B68A9891FFA83FED368CEF1160ED2
:10C4700023EA0103BEF1070FD36071D957F8A43C3A
:10C4800000220121013390468B4647F8A43CD5F8A1
:10C490009C309C4602935CF8049B48461DE0DCF807
:10C4A0000090B8F1140FA9EB000348461EDC13F10D
:10C4B000080948BF03F117094FEA291308EB2918A7
:10C4C00003F1FF39013102FA03F30CF1040C0BFA0A
:10C4D00009F28E4542EA030208D38E45DFD8C8F13F
:10C4E0001503DCF800004FF01508E9E7B8F1150F67
:10C4F00067D14F49C2F38423C2F3441001EB830395
:10C5000001EB8000D3F8E837D0F8E8071B0243EAD4
:10C51000001302F01F00C2F3C43201EB800001EBF4
:10C520008202D0F8E817D2F8E8270B4343EA023337
:10C5300083EA132282EA121202F00F020F2A40D17C
:10C54000C3F30F134FF6FF7293423AD0B3F5606F07
:10C5500047D0A381009918EE102A504615F01AF919
:10C5600028460136FFF7A2FE97F8F83B0AF15C0A6D
:10C570001434B34205F1A0053FF74EAF012100226C
:10C58000DDF80CB087F85A10C7F84423002B3FF4AD
:10C5900023AF03EB83030BEB43139BF810200BF14A
:10C5A000A00B5BF84C0C12F0020F5BF8982C116892
:10C5B0000A6A14BF42EA800202435B450A62ECD178
:10C5C0000AE757F8A83C013347F8A83CC6B1002356
:10C5D0000093BFE70024204605B0BDEC028BBDE808
:10C5E000F08F0F4991F8182302EB420201EBC202CF
:10C5F000324492F8C5220D2AABD18023A377A9E754
:10C6000002995822384650F0BFFE0096A2E7012258
:10C61000C7F8443387F85A20DFE600BF2402002021
:10C62000F01A01201C130020ABAAAAAAE0570608A2
:10C6300058D70508830AA3F58013522B51D8F0B5BB
:10C640000446694885B0034493F840020D2846D853
:10C65000664D860105EB8013D3F86875A7423ED07E
:10C660000139C3F8684589B2C3F874152968B1FB6C
:10C67000F2F2013AC3F86C250022C3F87825C3F81A
:10C680007025C3F87C2593F8A52502F0FF014AB375
:10C6900057490223AF1901EB8011204687F8A535D1
:10C6A000043141F05BFC012387F8A535514B9C42D6
:10C6B0001BD0B4F1804F18D0A3F57C439C4275D0B9
:10C6C00003F580639C4271D04B4A03F57C439C4246
:10C6D00018BF944249D003F570539C4245D005B031
:10C6E000F0BD704783F8A415D2E700234FF48051C2
:10C6F000AA19CDE9001392F8A4150129CDE9023356
:10C70000EDD00221D2F86805012482F8A5153B4935
:10C7100087683940816082F8A54582F8A4350023F6
:10C72000AA19CDE90033029392F8A435012BD6D093
:10C73000D2F8683502212F4882F8A51583425A683D
:10C7400099684ED000F5806083424AD022F0700292
:10C7500021F08001354401205A609960002385F85A
:10C76000A50585F8A43505B0F0BD00214FF4805330
:10C77000CDE90031AB1993F8A425012ACDE90211C6
:10C78000ADD0D3F86805022283F8A5251B4A876837
:10C790003A4082601A4A83F8A4150121944283F832
:10C7A000A515BCD0144B9C4299D1B8E700224FF498
:10C7B0008051AB19CDE9001293F8A4150129CDE9F8
:10C7C00002228CD00221D3F86805012483F8A51534
:10C7D0000A4987683940816083F8A54583F8A42514
:10C7E0009DE722F47002B1E758D70508F01A01203E
:10C7F0005820012000000140000C00408800FEFF8E
:10C800000004014070B504460068830AA3F5801354
:10C81000522B05D82E4E334493F840520D2D00D99B
:10C8200070BDFFF707FF2B4BA801022203EB851514
:10C83000D5F8681585F8A525274A8D682A40062A67
:10C8400006D0B2F5803F03D00A6842F001020A60C8
:10C85000034401202168214A83F8A50500232048CC
:10C8600001E050F8332091420AD001330E2BF8D169
:10C87000012100204AF0D4F81A4B01221A6070BD41
:10C8800006EBC303012193F96D4893F86D682046C8
:10C890004AF0C6F8002CC3DB06F01F03012164092F
:10C8A000104D01FA03F31B2E45F8243008D02E2E2C
:10C8B000B6D12C204AF0B4F84FF480536B6070BDB1
:10C8C00019204AF0ADF84FF000732B6070BD00BF27
:10C8D00058D70508F01A01200700010000000140A8
:10C8E000C0DF050800E100E0890AA1F580115229A6
:10C8F0002ED81F4B194410B591F840E2BEF10D0F30
:10C9000025D8EFF31184502383F31288036803B30F
:10C9100084464CF8243F043300F1140252F8041BFF
:10C9200019B1196052F8043C04336245F6D1002174
:10C93000E2B2196082F31188436A73B10D4B03EBC5
:10C940008E1EDEF86825D36843F00103D36010BD66
:10C95000704700F1240C6346DEE7064B03EB8E1EA6
:10C96000DEF86825D36823F00103D36010BD00BF53
:10C9700058D70508F01A0120F0B40468A30AA3F5FB
:10C980008013522B29D8234D2B4493F840320D2B82
:10C9900023D84079870811B303EB83051E4E4FF06F
:10C9A000020C800803EB45050CFA00F03D4406EB51
:10C9B0008317D7F86875D7F80CC040EA0C0006EB6F
:10C9C000850CCCF82C19CCF83C29F860134A2C20A3
:10C9D000214600FB0320F0BC86E7F0BC704703EB68
:10C9E00083050D4E384603EB45053D4406EB8317A2
:10C9F000D7F868C502278740DCF80C0020EA07005A
:10CA0000CCF80C0006EB8500C0F82C19C0F83C29C6
:10CA1000DCE700BF58D70508F01A012018240120D0
:10CA200001490248FCF750BD1824012000000140D4
:10CA300010B5064C064804F62811FCF745FD04F62F
:10CA4000B4210448BDE81040FCF73EBDF01A0120B7
:10CA5000000001400044014002494FF08040FCF7D3
:10CA600033BD00BF4424012001490248FCF72CBD1E
:10CA7000702401200004004001490248FCF724BD55
:10CA80009C2401200008004001490248FCF71CBD1D
:10CA9000C8240120000C00402DE9F843194E3569E7
:10CAA000F3681D4010D04FF00047DFF85C80B5FA06
:10CAB00085F227FA02F31F2A6FEA030305EA03054A
:10CAC000336103D0002DF2D1BDE8F883D8F82C3AB9
:10CAD000A3B103F1FF3900231FFA89F9C8F82C3AF2
:10CAE000D8F8284A002CEDD02368204649469847BC
:10CAF0006468002CF8D1002DD9D1E5E7F16A1FFA5E
:10CB000081F9EDE700100040F01A012001490248C8
:10CB1000FCF7DABC4C2501200004014010B5064C9E
:10CB2000064804F65C21FCF7CFFC04F638310448D3
:10CB3000BDE81040FCF7C8BCF01A01200004014019
:10CB4000001C004001490248FCF7BEBC78250120CA
:10CB50000040014001490248FCF7B6BCD025012045
:10CB60000048014001490248FCF7AEBCFC25012009
:10CB7000001800402DE9F04F4FF4257295B00021C8
:10CB8000814850F029FC814B814F4FF080415A6C15
:10CB900007F12004B94642F0010207F51E65A246DE
:10CBA000DFF8F4815A64A7F170065A6C02F00102B2
:10CBB0000092009A1A6C42F001021A641A6C02F098
:10CBC00001020192019A1A6C42F002021A641A6C74
:10CBD00002F002020292029A1A6C42F004021A64F3
:10CBE0001A6C02F004020392039A1A6C42F00802D3
:10CBF0001A641A6C02F008020492049A1A6C42F049
:10CC000010021A641A6C02F010020592059A1A6C4E
:10CC100042F020021A641A6C02F020020692069A70
:10CC20005A6C42F002025A645A6C02F002020792F5
:10CC3000079A5A6C42F480325A645A6C02F4803279
:10CC40000892089A5A6C42F400325A645A6C02F400
:10CC500000320992099A5A6C42F480225A645A6C42
:10CC600002F480220A920A9A1A6C42F040021A6474
:10CC70001A6C02F040020B920B9A1A6C42F080027E
:10CC80001A641A6C02F080020C920C9A1A6C42F42C
:10CC900080721A641B6C03F480730D930D9B4246E3
:10CCA000002301E056F833208A420CD001330E2BCA
:10CCB000F8D10AF1200A002049F0BCFB55450DD0FF
:10CCC0005AF8201CEBE7334A0AF1200A02EBC303AF
:10CCD00093F86C0849F0AEFB5545F1D107F51C6798
:10CCE000DFF8B0B0DFF8B8A009F120094F4526D031
:10CCF00099F80630002BF7D099F8040016F006FAE0
:10CD000006460028F0D0036809F1200919F8188CAC
:10CD100053440BEB932393F8A80749F08BFBB2889D
:10CD2000306800230E9202220EA9CDF84C80CDE986
:10CD30000F23CDE911334BF02BFE4F45D8D14FF0E7
:10CD40008041154F154E3A46002301E056F8332036
:10CD50008A420BD001330E2BF8D12034002049F049
:10CD600069FBAC420CD054F8201CECE7094A203493
:10CD700002EBC30393F86C0849F05CFBAC42F2D1C0
:10CD800015B0BDE8F08F00BF182401200038024024
:10CD900030E0050858D7050800000140C0DF05084D
:10CDA0000000FEBF08B572B6FDF748FC70B5032061
:10CDB00082B0FDF755FC01284CD0324C0025324A98
:10CDC0000523C4F89850C4F89C50C4F8A020C4F8B7
:10CDD0009430BFF34F8FBFF36F8F4FF6FF01E268C0
:10CDE0002A4B0A402A4E13432A4AE360536FC6F87F
:10CDF000BC3B40F019FE284BA3FB0023D4F8FC20D9
:10CE00009B0C42F08072C4F8FC20244AC6F8C03B58
:10CE1000234BC2F8B03F5560136843F00103136021
:10CE2000204A3368A2FB03239B09013BB3F1807FB7
:10CE300008D24FF0E022F0215361072384F8231039
:10CE4000956113614FF0E022136943F0040313610D
:10CE500002B070BD02210320FEF774FF0D4B124893
:10CE60005A6C124942F480425A645B6C03F480436A
:10CE70000193019A02680B68026083F308884B688B
:10CE80009847FEE700ED00E01B0000060005FA05EC
:10CE9000F01A01200038024083DE1B43001000E03E
:10CEA00055CEACC5D34D6210003801400000F01FD4
:10CEB000D0F82011242200232DE9F041C0F894215C
:10CEC00004460A68806804F5907522F001020A6041
:10CED0000B604B608B6094F805C0C4F834314FEAA6
:10CEE0008C22C4F89C3184F8903102F48052C4F84A
:10CEF0009431C4F83831C4F828214FEA0C32C4F810
:10CF0000983102F40052C4F840312379C4F82C213E
:10CF10004FEA0C22C4F8240113F0010002F48062ED
:10CF2000C4F830211CBF0422C4F8342113F00203DA
:10CF30001EBFD4F8342142F00802C4F834211CF09A
:10CF4000010F0DD048B1D4F8442142F00202C4F8D8
:10CF500044214FF48032C4F84C21002B40F0FF8074
:10CF6000A64B03F1200053F8042F944200F0BD803B
:10CF70009842F8D11CF0080F40F0CD80D4F89431DD
:10CF8000002B00F0128124232846C4F894310B684A
:10CF900023F001030B6044F085F9012815D0D4F883
:10CFA0004431002B40F01481D4F8203128465A68CF
:10CFB00022F490425A609A6822F02A029A601A6813
:10CFC00042F001021A604CF0D5FF2379DA0761D5EF
